{
  "contractName": "WasteManagement",
  "abi": [
    {
      "inputs": [],
      "stateMutability": "nonpayable",
      "type": "constructor"
    },
    {
      "inputs": [],
      "name": "binCount",
      "outputs": [
        {
          "internalType": "uint256",
          "name": "",
          "type": "uint256"
        }
      ],
      "stateMutability": "view",
      "type": "function",
      "constant": true
    },
    {
      "inputs": [
        {
          "internalType": "uint256",
          "name": "",
          "type": "uint256"
        }
      ],
      "name": "bins",
      "outputs": [
        {
          "internalType": "uint256",
          "name": "id",
          "type": "uint256"
        },
        {
          "internalType": "string",
          "name": "location",
          "type": "string"
        },
        {
          "internalType": "string",
          "name": "state",
          "type": "string"
        },
        {
          "internalType": "uint256",
          "name": "capacity",
          "type": "uint256"
        },
        {
          "internalType": "uint256",
          "name": "currentWeight",
          "type": "uint256"
        }
      ],
      "stateMutability": "view",
      "type": "function",
      "constant": true
    },
    {
      "inputs": [
        {
          "internalType": "address",
          "name": "",
          "type": "address"
        },
        {
          "internalType": "uint256",
          "name": "",
          "type": "uint256"
        }
      ],
      "name": "notifications",
      "outputs": [
        {
          "internalType": "address",
          "name": "shipperNotified",
          "type": "address"
        },
        {
          "internalType": "uint256",
          "name": "binNotif",
          "type": "uint256"
        },
        {
          "internalType": "bool",
          "name": "done",
          "type": "bool"
        }
      ],
      "stateMutability": "view",
      "type": "function",
      "constant": true
    },
    {
      "inputs": [],
      "name": "owner",
      "outputs": [
        {
          "internalType": "address",
          "name": "",
          "type": "address"
        }
      ],
      "stateMutability": "view",
      "type": "function",
      "constant": true
    },
    {
      "inputs": [
        {
          "internalType": "uint256",
          "name": "_id",
          "type": "uint256"
        },
        {
          "internalType": "string",
          "name": "_location",
          "type": "string"
        },
        {
          "internalType": "string",
          "name": "_state",
          "type": "string"
        },
        {
          "internalType": "uint256",
          "name": "_capacity",
          "type": "uint256"
        },
        {
          "internalType": "uint256",
          "name": "_currentWeight",
          "type": "uint256"
        }
      ],
      "name": "createBin",
      "outputs": [],
      "stateMutability": "nonpayable",
      "type": "function"
    },
    {
      "inputs": [
        {
          "internalType": "uint256",
          "name": "_id",
          "type": "uint256"
        },
        {
          "internalType": "string",
          "name": "_location",
          "type": "string"
        },
        {
          "internalType": "string",
          "name": "_state",
          "type": "string"
        },
        {
          "internalType": "uint256",
          "name": "_capacity",
          "type": "uint256"
        },
        {
          "internalType": "uint256",
          "name": "_currentWeight",
          "type": "uint256"
        }
      ],
      "name": "modifyBin",
      "outputs": [],
      "stateMutability": "nonpayable",
      "type": "function"
    },
    {
      "inputs": [
        {
          "internalType": "uint256",
          "name": "_id",
          "type": "uint256"
        }
      ],
      "name": "deleteBin",
      "outputs": [],
      "stateMutability": "nonpayable",
      "type": "function"
    },
    {
      "inputs": [],
      "name": "getBins",
      "outputs": [
        {
          "internalType": "uint256[]",
          "name": "",
          "type": "uint256[]"
        },
        {
          "internalType": "string[]",
          "name": "",
          "type": "string[]"
        },
        {
          "internalType": "string[]",
          "name": "",
          "type": "string[]"
        },
        {
          "internalType": "uint256[]",
          "name": "",
          "type": "uint256[]"
        },
        {
          "internalType": "uint256[]",
          "name": "",
          "type": "uint256[]"
        }
      ],
      "stateMutability": "view",
      "type": "function",
      "constant": true
    },
    {
      "inputs": [
        {
          "internalType": "address",
          "name": "_citizen",
          "type": "address"
        }
      ],
      "name": "createCitizen",
      "outputs": [],
      "stateMutability": "nonpayable",
      "type": "function"
    },
    {
      "inputs": [],
      "name": "getCitizens",
      "outputs": [
        {
          "internalType": "address[]",
          "name": "",
          "type": "address[]"
        }
      ],
      "stateMutability": "view",
      "type": "function",
      "constant": true
    },
    {
      "inputs": [
        {
          "internalType": "address",
          "name": "_citizenAddress",
          "type": "address"
        }
      ],
      "name": "deleteCitizen",
      "outputs": [],
      "stateMutability": "nonpayable",
      "type": "function"
    },
    {
      "inputs": [
        {
          "internalType": "address",
          "name": "_shipper",
          "type": "address"
        }
      ],
      "name": "createShipper",
      "outputs": [],
      "stateMutability": "nonpayable",
      "type": "function"
    },
    {
      "inputs": [],
      "name": "getShippers",
      "outputs": [
        {
          "internalType": "address[]",
          "name": "",
          "type": "address[]"
        }
      ],
      "stateMutability": "view",
      "type": "function",
      "constant": true
    },
    {
      "inputs": [
        {
          "internalType": "address",
          "name": "_shipper",
          "type": "address"
        },
        {
          "internalType": "uint256",
          "name": "_idBin",
          "type": "uint256"
        }
      ],
      "name": "notifyShipper",
      "outputs": [],
      "stateMutability": "nonpayable",
      "type": "function"
    },
    {
      "inputs": [
        {
          "internalType": "address",
          "name": "_shipper",
          "type": "address"
        }
      ],
      "name": "getNotifByShipper",
      "outputs": [
        {
          "components": [
            {
              "internalType": "address",
              "name": "shipperNotified",
              "type": "address"
            },
            {
              "internalType": "uint256",
              "name": "binNotif",
              "type": "uint256"
            },
            {
              "internalType": "bool",
              "name": "done",
              "type": "bool"
            }
          ],
          "internalType": "struct WasteManagement.Notif[]",
          "name": "",
          "type": "tuple[]"
        }
      ],
      "stateMutability": "view",
      "type": "function",
      "constant": true
    },
    {
      "inputs": [],
      "name": "getAllNotif",
      "outputs": [
        {
          "components": [
            {
              "internalType": "address",
              "name": "shipperNotified",
              "type": "address"
            },
            {
              "internalType": "uint256",
              "name": "binNotif",
              "type": "uint256"
            },
            {
              "internalType": "bool",
              "name": "done",
              "type": "bool"
            }
          ],
          "internalType": "struct WasteManagement.Notif[]",
          "name": "",
          "type": "tuple[]"
        }
      ],
      "stateMutability": "view",
      "type": "function",
      "constant": true
    },
    {
      "inputs": [
        {
          "internalType": "address",
          "name": "_shipperAddress",
          "type": "address"
        }
      ],
      "name": "deleteShipper",
      "outputs": [],
      "stateMutability": "nonpayable",
      "type": "function"
    }
  ],
  "bytecode": "0x608060405234801561001057600080fd5b5033600860006101000a81548173ffffffffffffffffffffffffffffffffffffffff021916908373ffffffffffffffffffffffffffffffffffffffff16021790555061327d806100616000396000f3fe608060405234801561001057600080fd5b506004361061010b5760003560e01c80638d68d807116100a2578063cc3b2e8811610071578063cc3b2e88146102a8578063df129891146102c6578063e042a402146102e2578063e63dad3614610304578063eee8c7db146103205761010b565b80638d68d807146102225780638da5cb5b1461023e5780638e44b6151461025c578063963464f11461028c5761010b565b80636a10fe94116100de5780636a10fe9414610198578063763440e4146101b6578063798277b9146101d2578063885c7b38146101ee5761010b565b80630977c961146101105780631ad1751e1461012e5780633c1bc3b91461014a57806365d0bddd14610166575b600080fd5b61011861033e565b60405161012591906122ba565b60405180910390f35b61014860048036038101906101439190612348565b61073e565b005b610164600480360381019061015f9190612388565b6109b6565b005b610180600480360381019061017b9190612348565b610c21565b60405161018f939291906123e2565b60405180910390f35b6101a0610c85565b6040516101ad91906124c8565b60405180910390f35b6101d060048036038101906101cb91906124ea565b610d13565b005b6101ec60048036038101906101e7919061265d565b610f8d565b005b610208600480360381019061020391906124ea565b61110b565b60405161021995949392919061278f565b60405180910390f35b61023c60048036038101906102379190612388565b611251565b005b610246611471565b60405161025391906127f0565b60405180910390f35b61027660048036038101906102719190612388565b611497565b60405161028391906122ba565b60405180910390f35b6102a660048036038101906102a19190612388565b61165b565b005b6102b0611836565b6040516102bd919061280b565b60405180910390f35b6102e060048036038101906102db9190612388565b61183c565b005b6102ea611a5c565b6040516102fb9594939291906129e1565b60405180910390f35b61031e6004803603810190610319919061265d565b611e45565b005b610328612030565b60405161033591906124c8565b60405180910390f35b60606000805b6004805490508110156104c85760005b6000548110156104b45760006002828154811061037457610373612a57565b5b906000526020600020015490506005600082815260200190815260200160002060009054906101000a900460ff16801561048c5750600073ffffffffffffffffffffffffffffffffffffffff1660096000600486815481106103d9576103d8612a57565b5b9060005260206000200160009054906101000a900473ffffffffffffffffffffffffffffffffffffffff1673ffffffffffffffffffffffffffffffffffffffff1673ffffffffffffffffffffffffffffffffffffffff168152602001908152602001600020600083815260200190815260200160002060000160009054906101000a900473ffffffffffffffffffffffffffffffffffffffff1673ffffffffffffffffffffffffffffffffffffffff1614155b156104a057838061049c90612ab5565b9450505b5080806104ac90612ab5565b915050610354565b5080806104c090612ab5565b915050610344565b5060008167ffffffffffffffff8111156104e5576104e4612532565b5b60405190808252806020026020018201604052801561051e57816020015b61050b6120be565b8152602001906001900390816105035790505b5090506000805b6004805490508110156107345760005b6000548110156107205760006002828154811061055557610554612a57565b5b906000526020600020015490506000600960006004868154811061057c5761057b612a57565b5b9060005260206000200160009054906101000a900473ffffffffffffffffffffffffffffffffffffffff1673ffffffffffffffffffffffffffffffffffffffff1673ffffffffffffffffffffffffffffffffffffffff16815260200190815260200160002060008381526020019081526020016000206040518060600160405290816000820160009054906101000a900473ffffffffffffffffffffffffffffffffffffffff1673ffffffffffffffffffffffffffffffffffffffff1673ffffffffffffffffffffffffffffffffffffffff168152602001600182015481526020016002820160009054906101000a900460ff16151515158152505090506005600083815260200190815260200160002060009054906101000a900460ff1680156106d85750600073ffffffffffffffffffffffffffffffffffffffff16816000015173ffffffffffffffffffffffffffffffffffffffff1614155b1561070b57808686815181106106f1576106f0612a57565b5b6020026020010181905250848061070790612ab5565b9550505b5050808061071890612ab5565b915050610535565b50808061072c90612ab5565b915050610525565b5081935050505090565b600860009054906101000a900473ffffffffffffffffffffffffffffffffffffffff1673ffffffffffffffffffffffffffffffffffffffff163373ffffffffffffffffffffffffffffffffffffffff16146107ce576040517f08c379a00000000000000000000000000000000000000000000000000000000081526004016107c590612b6f565b60405180910390fd5b600760008373ffffffffffffffffffffffffffffffffffffffff1673ffffffffffffffffffffffffffffffffffffffff16815260200190815260200160002060009054906101000a900460ff1661085a576040517f08c379a000000000000000000000000000000000000000000000000000000000815260040161085190612bdb565b60405180910390fd5b6005600082815260200190815260200160002060009054906101000a900460ff166108ba576040517f08c379a00000000000000000000000000000000000000000000000000000000081526004016108b190612c47565b60405180910390fd5b60405180606001604052808373ffffffffffffffffffffffffffffffffffffffff16815260200182815260200160001515815250600960008473ffffffffffffffffffffffffffffffffffffffff1673ffffffffffffffffffffffffffffffffffffffff168152602001908152602001600020600083815260200190815260200160002060008201518160000160006101000a81548173ffffffffffffffffffffffffffffffffffffffff021916908373ffffffffffffffffffffffffffffffffffffffff1602179055506020820151816001015560408201518160020160006101000a81548160ff0219169083151502179055509050505050565b600860009054906101000a900473ffffffffffffffffffffffffffffffffffffffff1673ffffffffffffffffffffffffffffffffffffffff163373ffffffffffffffffffffffffffffffffffffffff1614610a46576040517f08c379a0000000000000000000000000000000000000000000000000000000008152600401610a3d90612b6f565b60405180910390fd5b600660008273ffffffffffffffffffffffffffffffffffffffff1673ffffffffffffffffffffffffffffffffffffffff16815260200190815260200160002060009054906101000a900460ff1615610ad3576040517f08c379a0000000000000000000000000000000000000000000000000000000008152600401610aca90612cb3565b60405180910390fd5b600860009054906101000a900473ffffffffffffffffffffffffffffffffffffffff1673ffffffffffffffffffffffffffffffffffffffff168173ffffffffffffffffffffffffffffffffffffffff1603610b63576040517f08c379a0000000000000000000000000000000000000000000000000000000008152600401610b5a90612d45565b60405180910390fd5b6003819080600181540180825580915050600190039060005260206000200160009091909190916101000a81548173ffffffffffffffffffffffffffffffffffffffff021916908373ffffffffffffffffffffffffffffffffffffffff1602179055506001600660008373ffffffffffffffffffffffffffffffffffffffff1673ffffffffffffffffffffffffffffffffffffffff16815260200190815260200160002060006101000a81548160ff02191690831515021790555050565b6009602052816000526040600020602052806000526040600020600091509150508060000160009054906101000a900473ffffffffffffffffffffffffffffffffffffffff16908060010154908060020160009054906101000a900460ff16905083565b60606004805480602002602001604051908101604052809291908181526020018280548015610d0957602002820191906000526020600020905b8160009054906101000a900473ffffffffffffffffffffffffffffffffffffffff1673ffffffffffffffffffffffffffffffffffffffff1681526020019060010190808311610cbf575b5050505050905090565b600860009054906101000a900473ffffffffffffffffffffffffffffffffffffffff1673ffffffffffffffffffffffffffffffffffffffff163373ffffffffffffffffffffffffffffffffffffffff1614610da3576040517f08c379a0000000000000000000000000000000000000000000000000000000008152600401610d9a90612b6f565b60405180910390fd5b6005600082815260200190815260200160002060009054906101000a900460ff16610e03576040517f08c379a0000000000000000000000000000000000000000000000000000000008152600401610dfa90612db1565b60405180910390fd5b60006005600083815260200190815260200160002060006101000a81548160ff02191690831515021790555060016000828152602001908152602001600020600080820160009055600182016000610e5b91906120f7565b600282016000610e6b91906120f7565b60038201600090556004820160009055505060005b600280549050811015610f72578160028281548110610ea257610ea1612a57565b5b906000526020600020015403610f5f5760008190505b6001600280549050610eca9190612dd1565b811015610f31576002600182610ee09190612e05565b81548110610ef157610ef0612a57565b5b906000526020600020015460028281548110610f1057610f0f612a57565b5b90600052602060002001819055508080610f2990612ab5565b915050610eb8565b506002805480610f4457610f43612e39565b5b60019003818190600052602060002001600090559055610f72565b8080610f6a90612ab5565b915050610e80565b50600080815480929190610f8590612e68565b919050555050565b600860009054906101000a900473ffffffffffffffffffffffffffffffffffffffff1673ffffffffffffffffffffffffffffffffffffffff163373ffffffffffffffffffffffffffffffffffffffff161461101d576040517f08c379a000000000000000000000000000000000000000000000000000000000815260040161101490612b6f565b60405180910390fd5b6005600086815260200190815260200160002060009054906101000a900460ff1661107d576040517f08c379a000000000000000000000000000000000000000000000000000000000815260040161107490612db1565b60405180910390fd5b6040518060a0016040528086815260200185815260200184815260200183815260200182815250600160008781526020019081526020016000206000820151816000015560208201518160010190816110d6919061309d565b5060408201518160020190816110ec919061309d565b5060608201518160030155608082015181600401559050505050505050565b600160205280600052604060002060009150905080600001549080600101805461113490612ec0565b80601f016020809104026020016040519081016040528092919081815260200182805461116090612ec0565b80156111ad5780601f10611182576101008083540402835291602001916111ad565b820191906000526020600020905b81548152906001019060200180831161119057829003601f168201915b5050505050908060020180546111c290612ec0565b80601f01602080910402602001604051908101604052809291908181526020018280546111ee90612ec0565b801561123b5780601f106112105761010080835404028352916020019161123b565b820191906000526020600020905b81548152906001019060200180831161121e57829003601f168201915b5050505050908060030154908060040154905085565b600860009054906101000a900473ffffffffffffffffffffffffffffffffffffffff1673ffffffffffffffffffffffffffffffffffffffff163373ffffffffffffffffffffffffffffffffffffffff16146112e1576040517f08c379a00000000000000000000000000000000000000000000000000000000081526004016112d890612b6f565b60405180910390fd5b60005b60038054905081101561146d578173ffffffffffffffffffffffffffffffffffffffff166003828154811061131c5761131b612a57565b5b9060005260206000200160009054906101000a900473ffffffffffffffffffffffffffffffffffffffff1673ffffffffffffffffffffffffffffffffffffffff160361145a57600360016003805490506113769190612dd1565b8154811061138757611386612a57565b5b9060005260206000200160009054906101000a900473ffffffffffffffffffffffffffffffffffffffff16600382815481106113c6576113c5612a57565b5b9060005260206000200160006101000a81548173ffffffffffffffffffffffffffffffffffffffff021916908373ffffffffffffffffffffffffffffffffffffffff16021790555060038054806114205761141f612e39565b5b6001900381819060005260206000200160006101000a81549073ffffffffffffffffffffffffffffffffffffffff0219169055905561146d565b808061146590612ab5565b9150506112e4565b5050565b600860009054906101000a900473ffffffffffffffffffffffffffffffffffffffff1681565b60606000805467ffffffffffffffff8111156114b6576114b5612532565b5b6040519080825280602002602001820160405280156114ef57816020015b6114dc6120be565b8152602001906001900390816114d45790505b50905060005b6000548110156116515760006002828154811061151557611514612a57565b5b906000526020600020015490506005600082815260200190815260200160002060009054906101000a900460ff161561163d57600960008673ffffffffffffffffffffffffffffffffffffffff1673ffffffffffffffffffffffffffffffffffffffff16815260200190815260200160002060008281526020019081526020016000206040518060600160405290816000820160009054906101000a900473ffffffffffffffffffffffffffffffffffffffff1673ffffffffffffffffffffffffffffffffffffffff1673ffffffffffffffffffffffffffffffffffffffff168152602001600182015481526020016002820160009054906101000a900460ff16151515158152505083838151811061163157611630612a57565b5b60200260200101819052505b50808061164990612ab5565b9150506114f5565b5080915050919050565b600860009054906101000a900473ffffffffffffffffffffffffffffffffffffffff1673ffffffffffffffffffffffffffffffffffffffff163373ffffffffffffffffffffffffffffffffffffffff16146116eb576040517f08c379a00000000000000000000000000000000000000000000000000000000081526004016116e290612b6f565b60405180910390fd5b600760008273ffffffffffffffffffffffffffffffffffffffff1673ffffffffffffffffffffffffffffffffffffffff16815260200190815260200160002060009054906101000a900460ff1615611778576040517f08c379a000000000000000000000000000000000000000000000000000000000815260040161176f906131bb565b60405180910390fd5b6004819080600181540180825580915050600190039060005260206000200160009091909190916101000a81548173ffffffffffffffffffffffffffffffffffffffff021916908373ffffffffffffffffffffffffffffffffffffffff1602179055506001600760008373ffffffffffffffffffffffffffffffffffffffff1673ffffffffffffffffffffffffffffffffffffffff16815260200190815260200160002060006101000a81548160ff02191690831515021790555050565b60005481565b600860009054906101000a900473ffffffffffffffffffffffffffffffffffffffff1673ffffffffffffffffffffffffffffffffffffffff163373ffffffffffffffffffffffffffffffffffffffff16146118cc576040517f08c379a00000000000000000000000000000000000000000000000000000000081526004016118c390612b6f565b60405180910390fd5b60005b600480549050811015611a58578173ffffffffffffffffffffffffffffffffffffffff166004828154811061190757611906612a57565b5b9060005260206000200160009054906101000a900473ffffffffffffffffffffffffffffffffffffffff1673ffffffffffffffffffffffffffffffffffffffff1603611a4557600460016004805490506119619190612dd1565b8154811061197257611971612a57565b5b9060005260206000200160009054906101000a900473ffffffffffffffffffffffffffffffffffffffff16600482815481106119b1576119b0612a57565b5b9060005260206000200160006101000a81548173ffffffffffffffffffffffffffffffffffffffff021916908373ffffffffffffffffffffffffffffffffffffffff1602179055506004805480611a0b57611a0a612e39565b5b6001900381819060005260206000200160006101000a81549073ffffffffffffffffffffffffffffffffffffffff02191690559055611a58565b8080611a5090612ab5565b9150506118cf565b5050565b60608060608060606000805467ffffffffffffffff811115611a8157611a80612532565b5b604051908082528060200260200182016040528015611ab457816020015b6060815260200190600190039081611a9f5790505b5090506000805467ffffffffffffffff811115611ad457611ad3612532565b5b604051908082528060200260200182016040528015611b0757816020015b6060815260200190600190039081611af25790505b5090506000805467ffffffffffffffff811115611b2757611b26612532565b5b604051908082528060200260200182016040528015611b555781602001602082028036833780820191505090505b5090506000805467ffffffffffffffff811115611b7557611b74612532565b5b604051908082528060200260200182016040528015611ba35781602001602082028036833780820191505090505b50905060005b600054811015611dd75760006001600060028481548110611bcd57611bcc612a57565b5b906000526020600020015481526020019081526020016000206040518060a001604052908160008201548152602001600182018054611c0b90612ec0565b80601f0160208091040260200160405190810160405280929190818152602001828054611c3790612ec0565b8015611c845780601f10611c5957610100808354040283529160200191611c84565b820191906000526020600020905b815481529060010190602001808311611c6757829003601f168201915b50505050508152602001600282018054611c9d90612ec0565b80601f0160208091040260200160405190810160405280929190818152602001828054611cc990612ec0565b8015611d165780601f10611ceb57610100808354040283529160200191611d16565b820191906000526020600020905b815481529060010190602001808311611cf957829003601f168201915b505050505081526020016003820154815260200160048201548152505090508060200151868381518110611d4d57611d4c612a57565b5b60200260200101819052508060400151858381518110611d7057611d6f612a57565b5b60200260200101819052508060600151848381518110611d9357611d92612a57565b5b6020026020010181815250508060800151838381518110611db757611db6612a57565b5b602002602001018181525050508080611dcf90612ab5565b915050611ba9565b5060028484848484805480602002602001604051908101604052809291908181526020018280548015611e2957602002820191906000526020600020905b815481526020019060010190808311611e15575b5050505050945098509850985098509850505050509091929394565b600860009054906101000a900473ffffffffffffffffffffffffffffffffffffffff1673ffffffffffffffffffffffffffffffffffffffff163373ffffffffffffffffffffffffffffffffffffffff1614611ed5576040517f08c379a0000000000000000000000000000000000000000000000000000000008152600401611ecc90612b6f565b60405180910390fd5b6005600086815260200190815260200160002060009054906101000a900460ff1615611f36576040517f08c379a0000000000000000000000000000000000000000000000000000000008152600401611f2d90613227565b60405180910390fd5b6040518060a001604052808681526020018581526020018481526020018381526020018281525060016000878152602001908152602001600020600082015181600001556020820151816001019081611f8f919061309d565b506040820151816002019081611fa5919061309d565b5060608201518160030155608082015181600401559050506002859080600181540180825580915050600190039060005260206000200160009091909190915055600080815480929190611ff890612ab5565b919050555060016005600087815260200190815260200160002060006101000a81548160ff0219169083151502179055505050505050565b606060038054806020026020016040519081016040528092919081815260200182805480156120b457602002820191906000526020600020905b8160009054906101000a900473ffffffffffffffffffffffffffffffffffffffff1673ffffffffffffffffffffffffffffffffffffffff168152602001906001019080831161206a575b5050505050905090565b6040518060600160405280600073ffffffffffffffffffffffffffffffffffffffff168152602001600081526020016000151581525090565b50805461210390612ec0565b6000825580601f106121155750612134565b601f0160209004906000526020600020908101906121339190612137565b5b50565b5b80821115612150576000816000905550600101612138565b5090565b600081519050919050565b600082825260208201905092915050565b6000819050602082019050919050565b600073ffffffffffffffffffffffffffffffffffffffff82169050919050565b60006121ab82612180565b9050919050565b6121bb816121a0565b82525050565b6000819050919050565b6121d4816121c1565b82525050565b60008115159050919050565b6121ef816121da565b82525050565b60608201600082015161220b60008501826121b2565b50602082015161221e60208501826121cb565b50604082015161223160408501826121e6565b50505050565b600061224383836121f5565b60608301905092915050565b6000602082019050919050565b600061226782612154565b612271818561215f565b935061227c83612170565b8060005b838110156122ad5781516122948882612237565b975061229f8361224f565b925050600181019050612280565b5085935050505092915050565b600060208201905081810360008301526122d4818461225c565b905092915050565b6000604051905090565b600080fd5b600080fd5b6122f9816121a0565b811461230457600080fd5b50565b600081359050612316816122f0565b92915050565b612325816121c1565b811461233057600080fd5b50565b6000813590506123428161231c565b92915050565b6000806040838503121561235f5761235e6122e6565b5b600061236d85828601612307565b925050602061237e85828601612333565b9150509250929050565b60006020828403121561239e5761239d6122e6565b5b60006123ac84828501612307565b91505092915050565b6123be816121a0565b82525050565b6123cd816121c1565b82525050565b6123dc816121da565b82525050565b60006060820190506123f760008301866123b5565b61240460208301856123c4565b61241160408301846123d3565b949350505050565b600081519050919050565b600082825260208201905092915050565b6000819050602082019050919050565b600061245183836121b2565b60208301905092915050565b6000602082019050919050565b600061247582612419565b61247f8185612424565b935061248a83612435565b8060005b838110156124bb5781516124a28882612445565b97506124ad8361245d565b92505060018101905061248e565b5085935050505092915050565b600060208201905081810360008301526124e2818461246a565b905092915050565b600060208284031215612500576124ff6122e6565b5b600061250e84828501612333565b91505092915050565b600080fd5b600080fd5b6000601f19601f8301169050919050565b7f4e487b7100000000000000000000000000000000000000000000000000000000600052604160045260246000fd5b61256a82612521565b810181811067ffffffffffffffff8211171561258957612588612532565b5b80604052505050565b600061259c6122dc565b90506125a88282612561565b919050565b600067ffffffffffffffff8211156125c8576125c7612532565b5b6125d182612521565b9050602081019050919050565b82818337600083830152505050565b60006126006125fb846125ad565b612592565b90508281526020810184848401111561261c5761261b61251c565b5b6126278482856125de565b509392505050565b600082601f83011261264457612643612517565b5b81356126548482602086016125ed565b91505092915050565b600080600080600060a08688031215612679576126786122e6565b5b600061268788828901612333565b955050602086013567ffffffffffffffff8111156126a8576126a76122eb565b5b6126b48882890161262f565b945050604086013567ffffffffffffffff8111156126d5576126d46122eb565b5b6126e18882890161262f565b93505060606126f288828901612333565b925050608061270388828901612333565b9150509295509295909350565b600081519050919050565b600082825260208201905092915050565b60005b8381101561274a57808201518184015260208101905061272f565b60008484015250505050565b600061276182612710565b61276b818561271b565b935061277b81856020860161272c565b61278481612521565b840191505092915050565b600060a0820190506127a460008301886123c4565b81810360208301526127b68187612756565b905081810360408301526127ca8186612756565b90506127d960608301856123c4565b6127e660808301846123c4565b9695505050505050565b600060208201905061280560008301846123b5565b92915050565b600060208201905061282060008301846123c4565b92915050565b600081519050919050565b600082825260208201905092915050565b6000819050602082019050919050565b600061285e83836121cb565b60208301905092915050565b6000602082019050919050565b600061288282612826565b61288c8185612831565b935061289783612842565b8060005b838110156128c85781516128af8882612852565b97506128ba8361286a565b92505060018101905061289b565b5085935050505092915050565b600081519050919050565b600082825260208201905092915050565b6000819050602082019050919050565b600082825260208201905092915050565b600061291d82612710565b6129278185612901565b935061293781856020860161272c565b61294081612521565b840191505092915050565b60006129578383612912565b905092915050565b6000602082019050919050565b6000612977826128d5565b61298181856128e0565b935083602082028501612993856128f1565b8060005b858110156129cf57848403895281516129b0858261294b565b94506129bb8361295f565b925060208a01995050600181019050612997565b50829750879550505050505092915050565b600060a08201905081810360008301526129fb8188612877565b90508181036020830152612a0f818761296c565b90508181036040830152612a23818661296c565b90508181036060830152612a378185612877565b90508181036080830152612a4b8184612877565b90509695505050505050565b7f4e487b7100000000000000000000000000000000000000000000000000000000600052603260045260246000fd5b7f4e487b7100000000000000000000000000000000000000000000000000000000600052601160045260246000fd5b6000612ac0826121c1565b91507fffffffffffffffffffffffffffffffffffffffffffffffffffffffffffffffff8203612af257612af1612a86565b5b600182019050919050565b7f4f6e6c79206f776e65722063616e2063616c6c20746869732066756e6374696f60008201527f6e00000000000000000000000000000000000000000000000000000000000000602082015250565b6000612b5960218361271b565b9150612b6482612afd565b604082019050919050565b60006020820190508181036000830152612b8881612b4c565b9050919050565b7f5368697070657220646f65736e27742065786973740000000000000000000000600082015250565b6000612bc560158361271b565b9150612bd082612b8f565b602082019050919050565b60006020820190508181036000830152612bf481612bb8565b9050919050565b7f42696e20646f65736e2774206578697374000000000000000000000000000000600082015250565b6000612c3160118361271b565b9150612c3c82612bfb565b602082019050919050565b60006020820190508181036000830152612c6081612c24565b9050919050565b7f436974697a656e20616c72656164792065786973747300000000000000000000600082015250565b6000612c9d60168361271b565b9150612ca882612c67565b602082019050919050565b60006020820190508181036000830152612ccc81612c90565b9050919050565b7f43616e6e6f742063726561746520636974697a656e2077697468206f776e657260008201527f2773206164647265737300000000000000000000000000000000000000000000602082015250565b6000612d2f602a8361271b565b9150612d3a82612cd3565b604082019050919050565b60006020820190508181036000830152612d5e81612d22565b9050919050565b7f42696e20646f6573206e6f742065786973740000000000000000000000000000600082015250565b6000612d9b60128361271b565b9150612da682612d65565b602082019050919050565b60006020820190508181036000830152612dca81612d8e565b9050919050565b6000612ddc826121c1565b9150612de7836121c1565b9250828203905081811115612dff57612dfe612a86565b5b92915050565b6000612e10826121c1565b9150612e1b836121c1565b9250828201905080821115612e3357612e32612a86565b5b92915050565b7f4e487b7100000000000000000000000000000000000000000000000000000000600052603160045260246000fd5b6000612e73826121c1565b915060008203612e8657612e85612a86565b5b600182039050919050565b7f4e487b7100000000000000000000000000000000000000000000000000000000600052602260045260246000fd5b60006002820490506001821680612ed857607f821691505b602082108103612eeb57612eea612e91565b5b50919050565b60008190508160005260206000209050919050565b60006020601f8301049050919050565b600082821b905092915050565b600060088302612f537fffffffffffffffffffffffffffffffffffffffffffffffffffffffffffffffff82612f16565b612f5d8683612f16565b95508019841693508086168417925050509392505050565b6000819050919050565b6000612f9a612f95612f90846121c1565b612f75565b6121c1565b9050919050565b6000819050919050565b612fb483612f7f565b612fc8612fc082612fa1565b848454612f23565b825550505050565b600090565b612fdd612fd0565b612fe8818484612fab565b505050565b5b8181101561300c57613001600082612fd5565b600181019050612fee565b5050565b601f8211156130515761302281612ef1565b61302b84612f06565b8101602085101561303a578190505b61304e61304685612f06565b830182612fed565b50505b505050565b600082821c905092915050565b600061307460001984600802613056565b1980831691505092915050565b600061308d8383613063565b9150826002028217905092915050565b6130a682612710565b67ffffffffffffffff8111156130bf576130be612532565b5b6130c98254612ec0565b6130d4828285613010565b600060209050601f83116001811461310757600084156130f5578287015190505b6130ff8582613081565b865550613167565b601f19841661311586612ef1565b60005b8281101561313d57848901518255600182019150602085019450602081019050613118565b8683101561315a5784890151613156601f891682613063565b8355505b6001600288020188555050505b505050505050565b7f5368697070657220616c72656164792065786973747300000000000000000000600082015250565b60006131a560168361271b565b91506131b08261316f565b602082019050919050565b600060208201905081810360008301526131d481613198565b9050919050565b7f42696e20616c7265616479206578697374730000000000000000000000000000600082015250565b600061321160128361271b565b915061321c826131db565b602082019050919050565b6000602082019050818103600083015261324081613204565b905091905056fea26469706673582212203fcc2d4b55327e54392e249c0680adfb1dd4e545517fed1baebca907adb212c764736f6c63430008130033",
  "immutableReferences": {},
  "source": "// SPDX-License-Identifier: MIT\r\npragma solidity ^0.8.0;\r\n\r\ncontract WasteManagement {\r\n    struct Bin {\r\n        uint256 id;\r\n        string location;\r\n        string state;\r\n        uint256 capacity;\r\n        uint256 currentWeight;\r\n    }\r\n    struct Notif{\r\n        address shipperNotified;\r\n        uint256 binNotif;\r\n        bool done;\r\n    }\r\n\r\n    uint256 public binCount;\r\n    mapping(uint256 => Bin) public bins;\r\n    uint256[] binIds;\r\n    address[] citizens; // Array to store addresses of citizens\r\n    address[] shippers; // Array to store addresses of shippers\r\n    mapping(uint256 => bool) isBin; // Mapping to check if an address is a bin\r\n    mapping(address => bool) isCitizen; // Mapping to check if an address is a citizen\r\n    mapping(address => bool) isShipper; // Mapping to check if an address is a shipper\r\n    address public owner;\r\n    mapping(address => mapping(uint256 => Notif)) public notifications;\r\n    \r\n\r\n\r\n    modifier onlyOwner() {\r\n        require(msg.sender == owner, \"Only owner can call this function\");\r\n        _;\r\n    }\r\n\r\n    constructor() {\r\n        owner = msg.sender;\r\n    }\r\n\r\n\r\n\r\n                     //*************Bin************//\r\n    function createBin(uint256 _id, string memory _location, string memory _state, uint256 _capacity, uint256 _currentWeight) external onlyOwner {\r\n        require(!isBin[_id], \"Bin already exists\");\r\n        bins[_id] = Bin(_id, _location, _state, _capacity, _currentWeight);\r\n        binIds.push(_id);\r\n        binCount++;\r\n        isBin[_id] = true;\r\n    }\r\n\r\n    function modifyBin(uint256 _id, string memory _location, string memory _state, uint256 _capacity, uint256 _currentWeight) external onlyOwner {\r\n        require(isBin[_id], \"Bin does not exist\");\r\n        bins[_id] = Bin(_id, _location, _state, _capacity, _currentWeight);\r\n    }\r\n\r\n    function deleteBin(uint256 _id) external onlyOwner {\r\n        require(isBin[_id], \"Bin does not exist\");\r\n        \r\n        // Update mappings and arrays\r\n        isBin[_id] = false;\r\n        delete bins[_id];\r\n        \r\n        // Find and remove the bin ID from binIds array\r\n        for (uint256 i = 0; i < binIds.length; i++) {\r\n            if (binIds[i] == _id) {\r\n                for (uint256 j = i; j < binIds.length - 1; j++) {\r\n                    binIds[j] = binIds[j + 1];\r\n                }\r\n                binIds.pop();\r\n                break;\r\n            }\r\n        }\r\n        \r\n        // Decrement binCount\r\n        binCount--;\r\n    }\r\n    \r\n    function getBins() public view returns (uint256[] memory, string[] memory, string[] memory, uint256[] memory, uint256[] memory) {\r\n        string[] memory locations = new string[](binCount);\r\n        string[] memory states = new string[](binCount);\r\n        uint256[] memory capacities = new uint256[](binCount);\r\n        uint256[] memory currentWeights = new uint256[](binCount);\r\n\r\n        for (uint256 i = 0; i < binCount; i++) {\r\n            Bin memory bin = bins[binIds[i]];\r\n            locations[i] = bin.location;\r\n            states[i] = bin.state;\r\n            capacities[i] = bin.capacity;\r\n            currentWeights[i] = bin.currentWeight;\r\n        }\r\n\r\n        return (binIds, locations, states, capacities, currentWeights);\r\n    }\r\n\r\n\r\n\r\n\r\n                        //*************Citizen************//\r\n    function createCitizen(address _citizen) external onlyOwner {\r\n        require(!isCitizen[_citizen], \"Citizen already exists\");\r\n        require(_citizen != owner, \"Cannot create citizen with owner's address\");\r\n\r\n        citizens.push(_citizen);\r\n        isCitizen[_citizen] = true;\r\n    }\r\n\r\n\r\n    function getCitizens() public view returns (address[] memory) {\r\n        return citizens;\r\n    }\r\n\r\n    function deleteCitizen(address _citizenAddress) external onlyOwner {\r\n        for (uint256 i = 0; i < citizens.length; i++) {\r\n            if (citizens[i] == _citizenAddress) {\r\n                citizens[i] = citizens[\r\n                    citizens.length - 1\r\n                ];\r\n                citizens.pop();\r\n                break;\r\n            }\r\n        }\r\n    }\r\n\r\n\r\n                         //*************Shipper************//\r\n    function createShipper(address _shipper) external onlyOwner {\r\n        // Check if the shipper already exists\r\n        require(!isShipper[_shipper], \"Shipper already exists\");\r\n\r\n        // Add the shipper to the database\r\n        shippers.push(_shipper);\r\n        isShipper[_shipper] = true;\r\n    }\r\n\r\n    function getShippers() public view returns (address[] memory) {\r\n        return shippers;\r\n    }\r\n\r\n    function notifyShipper(address _shipper, uint256 _idBin) external onlyOwner {\r\n        require(isShipper[_shipper], \"Shipper doesn't exist\");\r\n        require(isBin[_idBin], \"Bin doesn't exist\");\r\n        notifications[_shipper][_idBin] = Notif(_shipper, _idBin, false);\r\n    }\r\n\r\n    function getNotifByShipper(address _shipper) public view returns (Notif[] memory) {\r\n        // Create an array to store notifications for the specified shipper\r\n        Notif[] memory shipperNotifications = new Notif[](binCount);\r\n\r\n        for (uint256 i = 0; i < binCount; i++) {\r\n            uint256 binId = binIds[i];\r\n            if (isBin[binId]) {\r\n                shipperNotifications[i] = notifications[_shipper][binId];\r\n            }\r\n        }\r\n\r\n        return shipperNotifications;\r\n    }\r\n\r\n   function getAllNotif() public view returns (Notif[] memory) {\r\n        // Calculate the total number of notifications\r\n        uint256 totalNotifications = 0;\r\n        for (uint256 i = 0; i < shippers.length; i++) {\r\n            for (uint256 j = 0; j < binCount; j++) {\r\n                uint256 binId = binIds[j];\r\n                if (isBin[binId] && notifications[shippers[i]][binId].shipperNotified != address(0)) {\r\n                    totalNotifications++;\r\n                }\r\n            }\r\n        }\r\n\r\n        // Create an array to store all notifications\r\n        Notif[] memory allNotifications = new Notif[](totalNotifications);\r\n\r\n        uint256 index = 0;\r\n        for (uint256 i = 0; i < shippers.length; i++) {\r\n            for (uint256 j = 0; j < binCount; j++) {\r\n                uint256 binId = binIds[j];\r\n                Notif memory notification = notifications[shippers[i]][binId];\r\n                if (isBin[binId] && notification.shipperNotified != address(0)) {\r\n                    allNotifications[index] = notification;\r\n                    index++;\r\n                }\r\n            }\r\n        }\r\n\r\n        return allNotifications;\r\n    }\r\n\r\n\r\n\r\n\r\n   function deleteShipper(address _shipperAddress) external onlyOwner {\r\n        for (uint256 i = 0; i < shippers.length; i++) {\r\n            if (shippers[i] == _shipperAddress) {\r\n                shippers[i] = shippers[\r\n                    shippers.length - 1\r\n                ];\r\n                shippers.pop();\r\n                break;\r\n            }\r\n        }\r\n    }\r\n\r\n\r\n\r\n}",
  "sourcePath": "C:\\Users\\MSI\\Desktop\\testPFAand Blockchain\\truffle\\contracts\\WasteManagement.sol",
  "compiler": {
    "name": "solc",
    "version": "0.8.19+commit.7dd6d404.Emscripten.clang"
  },
  "schemaVersion": "3.4.16",
  "updatedAt": "2024-02-14T21:33:48.888Z",
  "networkType": "ethereum",
  "devdoc": {
    "kind": "dev",
    "methods": {},
    "version": 1
  },
  "userdoc": {
    "kind": "user",
    "methods": {},
    "version": 1
  }
}