{
  "contractName": "Manager",
  "abi": [
    {
      "inputs": [],
      "stateMutability": "nonpayable",
      "type": "constructor"
    },
    {
      "inputs": [
        {
          "internalType": "uint256",
          "name": "",
          "type": "uint256"
        }
      ],
      "name": "bins",
      "outputs": [
        {
          "internalType": "uint256",
          "name": "id",
          "type": "uint256"
        },
        {
          "internalType": "string",
          "name": "location",
          "type": "string"
        },
        {
          "internalType": "string",
          "name": "state",
          "type": "string"
        },
        {
          "internalType": "uint256",
          "name": "capacity",
          "type": "uint256"
        },
        {
          "internalType": "uint256",
          "name": "currentWeight",
          "type": "uint256"
        }
      ],
      "stateMutability": "view",
      "type": "function",
      "constant": true
    },
    {
      "inputs": [],
      "name": "binsCount",
      "outputs": [
        {
          "internalType": "uint256",
          "name": "",
          "type": "uint256"
        }
      ],
      "stateMutability": "view",
      "type": "function",
      "constant": true
    },
    {
      "inputs": [
        {
          "internalType": "uint256",
          "name": "",
          "type": "uint256"
        }
      ],
      "name": "citizenAddresses",
      "outputs": [
        {
          "internalType": "address",
          "name": "",
          "type": "address"
        }
      ],
      "stateMutability": "view",
      "type": "function",
      "constant": true
    },
    {
      "inputs": [],
      "name": "owner",
      "outputs": [
        {
          "internalType": "address",
          "name": "",
          "type": "address"
        }
      ],
      "stateMutability": "view",
      "type": "function",
      "constant": true
    },
    {
      "inputs": [
        {
          "internalType": "uint256",
          "name": "",
          "type": "uint256"
        }
      ],
      "name": "shipperAddresses",
      "outputs": [
        {
          "internalType": "address",
          "name": "",
          "type": "address"
        }
      ],
      "stateMutability": "view",
      "type": "function",
      "constant": true
    },
    {
      "inputs": [
        {
          "internalType": "address",
          "name": "_shipperAddress",
          "type": "address"
        }
      ],
      "name": "createShipper",
      "outputs": [],
      "stateMutability": "nonpayable",
      "type": "function"
    },
    {
      "inputs": [
        {
          "internalType": "address",
          "name": "_shipperAddress",
          "type": "address"
        }
      ],
      "name": "deleteShipper",
      "outputs": [],
      "stateMutability": "nonpayable",
      "type": "function"
    },
    {
      "inputs": [
        {
          "internalType": "address",
          "name": "_citizenAddress",
          "type": "address"
        }
      ],
      "name": "createCitizen",
      "outputs": [],
      "stateMutability": "nonpayable",
      "type": "function"
    },
    {
      "inputs": [
        {
          "internalType": "address",
          "name": "_citizenAddress",
          "type": "address"
        }
      ],
      "name": "deleteCitizen",
      "outputs": [],
      "stateMutability": "nonpayable",
      "type": "function"
    },
    {
      "inputs": [
        {
          "internalType": "uint256",
          "name": "_id",
          "type": "uint256"
        },
        {
          "internalType": "string",
          "name": "_location",
          "type": "string"
        },
        {
          "internalType": "string",
          "name": "_state",
          "type": "string"
        },
        {
          "internalType": "uint256",
          "name": "_capacity",
          "type": "uint256"
        },
        {
          "internalType": "uint256",
          "name": "_currentWeight",
          "type": "uint256"
        }
      ],
      "name": "createBin",
      "outputs": [],
      "stateMutability": "nonpayable",
      "type": "function"
    },
    {
      "inputs": [
        {
          "internalType": "uint256",
          "name": "_id",
          "type": "uint256"
        },
        {
          "internalType": "string",
          "name": "_location",
          "type": "string"
        },
        {
          "internalType": "string",
          "name": "_state",
          "type": "string"
        },
        {
          "internalType": "uint256",
          "name": "_capacity",
          "type": "uint256"
        },
        {
          "internalType": "uint256",
          "name": "_currentWeight",
          "type": "uint256"
        }
      ],
      "name": "modifyBin",
      "outputs": [],
      "stateMutability": "nonpayable",
      "type": "function"
    },
    {
      "inputs": [
        {
          "internalType": "uint256",
          "name": "_id",
          "type": "uint256"
        }
      ],
      "name": "deleteBin",
      "outputs": [],
      "stateMutability": "nonpayable",
      "type": "function"
    },
    {
      "inputs": [],
      "name": "getShipperAddresses",
      "outputs": [
        {
          "internalType": "address[]",
          "name": "",
          "type": "address[]"
        }
      ],
      "stateMutability": "view",
      "type": "function",
      "constant": true
    },
    {
      "inputs": [],
      "name": "getCitizenAddresses",
      "outputs": [
        {
          "internalType": "address[]",
          "name": "",
          "type": "address[]"
        }
      ],
      "stateMutability": "view",
      "type": "function",
      "constant": true
    },
    {
      "inputs": [
        {
          "internalType": "address",
          "name": "_citizenAddress",
          "type": "address"
        }
      ],
      "name": "getCitizenByAddress",
      "outputs": [
        {
          "internalType": "address",
          "name": "",
          "type": "address"
        }
      ],
      "stateMutability": "view",
      "type": "function",
      "constant": true
    },
    {
      "inputs": [
        {
          "internalType": "address",
          "name": "_shipperAddress",
          "type": "address"
        }
      ],
      "name": "getShipperByAddress",
      "outputs": [
        {
          "internalType": "address",
          "name": "",
          "type": "address"
        }
      ],
      "stateMutability": "view",
      "type": "function",
      "constant": true
    },
    {
      "inputs": [
        {
          "internalType": "uint256",
          "name": "_id",
          "type": "uint256"
        }
      ],
      "name": "getBinById",
      "outputs": [
        {
          "internalType": "uint256",
          "name": "",
          "type": "uint256"
        },
        {
          "internalType": "string",
          "name": "",
          "type": "string"
        },
        {
          "internalType": "string",
          "name": "",
          "type": "string"
        },
        {
          "internalType": "uint256",
          "name": "",
          "type": "uint256"
        },
        {
          "internalType": "uint256",
          "name": "",
          "type": "uint256"
        }
      ],
      "stateMutability": "view",
      "type": "function",
      "constant": true
    }
  ],
  "bytecode": "0x608060405234801561001057600080fd5b5033600460006101000a81548173ffffffffffffffffffffffffffffffffffffffff021916908373ffffffffffffffffffffffffffffffffffffffff160217905550611e92806100616000396000f3fe608060405234801561001057600080fd5b506004361061010b5760003560e01c80638d68d807116100a257806397c62cb31161007157806397c62cb3146102be578063a5fafafb146102ee578063df1298911461031e578063e63dad361461033a578063fb0c34ef146103565761010b565b80638d68d807146102345780638da5cb5b146102505780639568c0721461026e578063963464f1146102a25761010b565b8063763440e4116100de578063763440e414610198578063798277b9146101b45780637af33f2e146101d0578063885c7b38146102005761010b565b8063068ff4fc146101105780632711a41c146101405780633c1bc3b91461015e5780633e5e38881461017a575b600080fd5b61012a600480360381019061012591906114f5565b610374565b6040516101379190611563565b60405180910390f35b6101486103b3565b604051610155919061163c565b60405180910390f35b6101786004803603810190610173919061168a565b6104d1565b005b6101826105c7565b60405161018f919061163c565b60405180910390f35b6101b260048036038101906101ad91906114f5565b6106e5565b005b6101ce60048036038101906101c991906117fd565b6107dd565b005b6101ea60048036038101906101e591906114f5565b6108fa565b6040516101f79190611563565b60405180910390f35b61021a600480360381019061021591906114f5565b610939565b60405161022b95949392919061193e565b60405180910390f35b61024e6004803603810190610249919061168a565b610a7f565b005b610258610c9f565b6040516102659190611563565b60405180910390f35b610288600480360381019061028391906114f5565b610cc5565b60405161029995949392919061193e565b60405180910390f35b6102bc60048036038101906102b7919061168a565b610ea3565b005b6102d860048036038101906102d3919061168a565b610f99565b6040516102e59190611563565b60405180910390f35b6103086004803603810190610303919061168a565b611046565b6040516103159190611563565b60405180910390f35b6103386004803603810190610333919061168a565b6110f3565b005b610354600480360381019061034f91906117fd565b611313565b005b61035e611448565b60405161036b919061199f565b60405180910390f35b6002818154811061038457600080fd5b906000526020600020016000915054906101000a900473ffffffffffffffffffffffffffffffffffffffff1681565b6060600460009054906101000a900473ffffffffffffffffffffffffffffffffffffffff1673ffffffffffffffffffffffffffffffffffffffff163373ffffffffffffffffffffffffffffffffffffffff1614610445576040517f08c379a000000000000000000000000000000000000000000000000000000000815260040161043c90611a2c565b60405180910390fd5b60028054806020026020016040519081016040528092919081815260200182805480156104c757602002820191906000526020600020905b8160009054906101000a900473ffffffffffffffffffffffffffffffffffffffff1673ffffffffffffffffffffffffffffffffffffffff168152602001906001019080831161047d575b5050505050905090565b600460009054906101000a900473ffffffffffffffffffffffffffffffffffffffff1673ffffffffffffffffffffffffffffffffffffffff163373ffffffffffffffffffffffffffffffffffffffff1614610561576040517f08c379a000000000000000000000000000000000000000000000000000000000815260040161055890611a2c565b60405180910390fd5b6003819080600181540180825580915050600190039060005260206000200160009091909190916101000a81548173ffffffffffffffffffffffffffffffffffffffff021916908373ffffffffffffffffffffffffffffffffffffffff16021790555050565b6060600460009054906101000a900473ffffffffffffffffffffffffffffffffffffffff1673ffffffffffffffffffffffffffffffffffffffff163373ffffffffffffffffffffffffffffffffffffffff1614610659576040517f08c379a000000000000000000000000000000000000000000000000000000000815260040161065090611a2c565b60405180910390fd5b60038054806020026020016040519081016040528092919081815260200182805480156106db57602002820191906000526020600020905b8160009054906101000a900473ffffffffffffffffffffffffffffffffffffffff1673ffffffffffffffffffffffffffffffffffffffff1681526020019060010190808311610691575b5050505050905090565b600460009054906101000a900473ffffffffffffffffffffffffffffffffffffffff1673ffffffffffffffffffffffffffffffffffffffff163373ffffffffffffffffffffffffffffffffffffffff1614610775576040517f08c379a000000000000000000000000000000000000000000000000000000000815260040161076c90611a2c565b60405180910390fd5b6000808281526020019081526020016000206000808201600090556001820160006107a0919061144e565b6002820160006107b0919061144e565b600382016000905560048201600090555050600160008154809291906107d590611a7b565b919050555050565b600460009054906101000a900473ffffffffffffffffffffffffffffffffffffffff1673ffffffffffffffffffffffffffffffffffffffff163373ffffffffffffffffffffffffffffffffffffffff161461086d576040517f08c379a000000000000000000000000000000000000000000000000000000000815260040161086490611a2c565b60405180910390fd5b6040518060a00160405280868152602001858152602001848152602001838152602001828152506000808781526020019081526020016000206000820151816000015560208201518160010190816108c59190611cb0565b5060408201518160020190816108db9190611cb0565b5060608201518160030155608082015181600401559050505050505050565b6003818154811061090a57600080fd5b906000526020600020016000915054906101000a900473ffffffffffffffffffffffffffffffffffffffff1681565b600060205280600052604060002060009150905080600001549080600101805461096290611ad3565b80601f016020809104026020016040519081016040528092919081815260200182805461098e90611ad3565b80156109db5780601f106109b0576101008083540402835291602001916109db565b820191906000526020600020905b8154815290600101906020018083116109be57829003601f168201915b5050505050908060020180546109f090611ad3565b80601f0160208091040260200160405190810160405280929190818152602001828054610a1c90611ad3565b8015610a695780601f10610a3e57610100808354040283529160200191610a69565b820191906000526020600020905b815481529060010190602001808311610a4c57829003601f168201915b5050505050908060030154908060040154905085565b600460009054906101000a900473ffffffffffffffffffffffffffffffffffffffff1673ffffffffffffffffffffffffffffffffffffffff163373ffffffffffffffffffffffffffffffffffffffff1614610b0f576040517f08c379a0000000000000000000000000000000000000000000000000000000008152600401610b0690611a2c565b60405180910390fd5b60005b600380549050811015610c9b578173ffffffffffffffffffffffffffffffffffffffff1660038281548110610b4a57610b49611d82565b5b9060005260206000200160009054906101000a900473ffffffffffffffffffffffffffffffffffffffff1673ffffffffffffffffffffffffffffffffffffffff1603610c885760036001600380549050610ba49190611db1565b81548110610bb557610bb4611d82565b5b9060005260206000200160009054906101000a900473ffffffffffffffffffffffffffffffffffffffff1660038281548110610bf457610bf3611d82565b5b9060005260206000200160006101000a81548173ffffffffffffffffffffffffffffffffffffffff021916908373ffffffffffffffffffffffffffffffffffffffff1602179055506003805480610c4e57610c4d611de5565b5b6001900381819060005260206000200160006101000a81549073ffffffffffffffffffffffffffffffffffffffff02191690559055610c9b565b8080610c9390611e14565b915050610b12565b5050565b600460009054906101000a900473ffffffffffffffffffffffffffffffffffffffff1681565b600060608060008060008060008881526020019081526020016000206040518060a001604052908160008201548152602001600182018054610d0690611ad3565b80601f0160208091040260200160405190810160405280929190818152602001828054610d3290611ad3565b8015610d7f5780601f10610d5457610100808354040283529160200191610d7f565b820191906000526020600020905b815481529060010190602001808311610d6257829003601f168201915b50505050508152602001600282018054610d9890611ad3565b80601f0160208091040260200160405190810160405280929190818152602001828054610dc490611ad3565b8015610e115780601f10610de657610100808354040283529160200191610e11565b820191906000526020600020905b815481529060010190602001808311610df457829003601f168201915b505050505081526020016003820154815260200160048201548152505090506000816000015103610e755760008060006040518060200160405280600081525091906040518060200160405280600081525091909550955095509550955050610e9a565b8060000151816020015182604001518360600151846080015195509550955095509550505b91939590929450565b600460009054906101000a900473ffffffffffffffffffffffffffffffffffffffff1673ffffffffffffffffffffffffffffffffffffffff163373ffffffffffffffffffffffffffffffffffffffff1614610f33576040517f08c379a0000000000000000000000000000000000000000000000000000000008152600401610f2a90611a2c565b60405180910390fd5b6002819080600181540180825580915050600190039060005260206000200160009091909190916101000a81548173ffffffffffffffffffffffffffffffffffffffff021916908373ffffffffffffffffffffffffffffffffffffffff16021790555050565b600080600090505b60028054905081101561103b578273ffffffffffffffffffffffffffffffffffffffff1660028281548110610fd957610fd8611d82565b5b9060005260206000200160009054906101000a900473ffffffffffffffffffffffffffffffffffffffff1673ffffffffffffffffffffffffffffffffffffffff16036110285782915050611041565b808061103390611e14565b915050610fa1565b50600090505b919050565b600080600090505b6003805490508110156110e8578273ffffffffffffffffffffffffffffffffffffffff166003828154811061108657611085611d82565b5b9060005260206000200160009054906101000a900473ffffffffffffffffffffffffffffffffffffffff1673ffffffffffffffffffffffffffffffffffffffff16036110d557829150506110ee565b80806110e090611e14565b91505061104e565b50600090505b919050565b600460009054906101000a900473ffffffffffffffffffffffffffffffffffffffff1673ffffffffffffffffffffffffffffffffffffffff163373ffffffffffffffffffffffffffffffffffffffff1614611183576040517f08c379a000000000000000000000000000000000000000000000000000000000815260040161117a90611a2c565b60405180910390fd5b60005b60028054905081101561130f578173ffffffffffffffffffffffffffffffffffffffff16600282815481106111be576111bd611d82565b5b9060005260206000200160009054906101000a900473ffffffffffffffffffffffffffffffffffffffff1673ffffffffffffffffffffffffffffffffffffffff16036112fc57600260016002805490506112189190611db1565b8154811061122957611228611d82565b5b9060005260206000200160009054906101000a900473ffffffffffffffffffffffffffffffffffffffff166002828154811061126857611267611d82565b5b9060005260206000200160006101000a81548173ffffffffffffffffffffffffffffffffffffffff021916908373ffffffffffffffffffffffffffffffffffffffff16021790555060028054806112c2576112c1611de5565b5b6001900381819060005260206000200160006101000a81549073ffffffffffffffffffffffffffffffffffffffff0219169055905561130f565b808061130790611e14565b915050611186565b5050565b600460009054906101000a900473ffffffffffffffffffffffffffffffffffffffff1673ffffffffffffffffffffffffffffffffffffffff163373ffffffffffffffffffffffffffffffffffffffff16146113a3576040517f08c379a000000000000000000000000000000000000000000000000000000000815260040161139a90611a2c565b60405180910390fd5b6040518060a00160405280868152602001858152602001848152602001838152602001828152506000808781526020019081526020016000206000820151816000015560208201518160010190816113fb9190611cb0565b5060408201518160020190816114119190611cb0565b5060608201518160030155608082015181600401559050506001600081548092919061143c90611e14565b91905055505050505050565b60015481565b50805461145a90611ad3565b6000825580601f1061146c575061148b565b601f01602090049060005260206000209081019061148a919061148e565b5b50565b5b808211156114a757600081600090555060010161148f565b5090565b6000604051905090565b600080fd5b600080fd5b6000819050919050565b6114d2816114bf565b81146114dd57600080fd5b50565b6000813590506114ef816114c9565b92915050565b60006020828403121561150b5761150a6114b5565b5b6000611519848285016114e0565b91505092915050565b600073ffffffffffffffffffffffffffffffffffffffff82169050919050565b600061154d82611522565b9050919050565b61155d81611542565b82525050565b60006020820190506115786000830184611554565b92915050565b600081519050919050565b600082825260208201905092915050565b6000819050602082019050919050565b6115b381611542565b82525050565b60006115c583836115aa565b60208301905092915050565b6000602082019050919050565b60006115e98261157e565b6115f38185611589565b93506115fe8361159a565b8060005b8381101561162f57815161161688826115b9565b9750611621836115d1565b925050600181019050611602565b5085935050505092915050565b6000602082019050818103600083015261165681846115de565b905092915050565b61166781611542565b811461167257600080fd5b50565b6000813590506116848161165e565b92915050565b6000602082840312156116a05761169f6114b5565b5b60006116ae84828501611675565b91505092915050565b600080fd5b600080fd5b6000601f19601f8301169050919050565b7f4e487b7100000000000000000000000000000000000000000000000000000000600052604160045260246000fd5b61170a826116c1565b810181811067ffffffffffffffff82111715611729576117286116d2565b5b80604052505050565b600061173c6114ab565b90506117488282611701565b919050565b600067ffffffffffffffff821115611768576117676116d2565b5b611771826116c1565b9050602081019050919050565b82818337600083830152505050565b60006117a061179b8461174d565b611732565b9050828152602081018484840111156117bc576117bb6116bc565b5b6117c784828561177e565b509392505050565b600082601f8301126117e4576117e36116b7565b5b81356117f484826020860161178d565b91505092915050565b600080600080600060a08688031215611819576118186114b5565b5b6000611827888289016114e0565b955050602086013567ffffffffffffffff811115611848576118476114ba565b5b611854888289016117cf565b945050604086013567ffffffffffffffff811115611875576118746114ba565b5b611881888289016117cf565b9350506060611892888289016114e0565b92505060806118a3888289016114e0565b9150509295509295909350565b6118b9816114bf565b82525050565b600081519050919050565b600082825260208201905092915050565b60005b838110156118f95780820151818401526020810190506118de565b60008484015250505050565b6000611910826118bf565b61191a81856118ca565b935061192a8185602086016118db565b611933816116c1565b840191505092915050565b600060a08201905061195360008301886118b0565b81810360208301526119658187611905565b905081810360408301526119798186611905565b905061198860608301856118b0565b61199560808301846118b0565b9695505050505050565b60006020820190506119b460008301846118b0565b92915050565b7f4f6e6c79206f776e65722063616e2063616c6c20746869732066756e6374696f60008201527f6e00000000000000000000000000000000000000000000000000000000000000602082015250565b6000611a166021836118ca565b9150611a21826119ba565b604082019050919050565b60006020820190508181036000830152611a4581611a09565b9050919050565b7f4e487b7100000000000000000000000000000000000000000000000000000000600052601160045260246000fd5b6000611a86826114bf565b915060008203611a9957611a98611a4c565b5b600182039050919050565b7f4e487b7100000000000000000000000000000000000000000000000000000000600052602260045260246000fd5b60006002820490506001821680611aeb57607f821691505b602082108103611afe57611afd611aa4565b5b50919050565b60008190508160005260206000209050919050565b60006020601f8301049050919050565b600082821b905092915050565b600060088302611b667fffffffffffffffffffffffffffffffffffffffffffffffffffffffffffffffff82611b29565b611b708683611b29565b95508019841693508086168417925050509392505050565b6000819050919050565b6000611bad611ba8611ba3846114bf565b611b88565b6114bf565b9050919050565b6000819050919050565b611bc783611b92565b611bdb611bd382611bb4565b848454611b36565b825550505050565b600090565b611bf0611be3565b611bfb818484611bbe565b505050565b5b81811015611c1f57611c14600082611be8565b600181019050611c01565b5050565b601f821115611c6457611c3581611b04565b611c3e84611b19565b81016020851015611c4d578190505b611c61611c5985611b19565b830182611c00565b50505b505050565b600082821c905092915050565b6000611c8760001984600802611c69565b1980831691505092915050565b6000611ca08383611c76565b9150826002028217905092915050565b611cb9826118bf565b67ffffffffffffffff811115611cd257611cd16116d2565b5b611cdc8254611ad3565b611ce7828285611c23565b600060209050601f831160018114611d1a5760008415611d08578287015190505b611d128582611c94565b865550611d7a565b601f198416611d2886611b04565b60005b82811015611d5057848901518255600182019150602085019450602081019050611d2b565b86831015611d6d5784890151611d69601f891682611c76565b8355505b6001600288020188555050505b505050505050565b7f4e487b7100000000000000000000000000000000000000000000000000000000600052603260045260246000fd5b6000611dbc826114bf565b9150611dc7836114bf565b9250828203905081811115611ddf57611dde611a4c565b5b92915050565b7f4e487b7100000000000000000000000000000000000000000000000000000000600052603160045260246000fd5b6000611e1f826114bf565b91507fffffffffffffffffffffffffffffffffffffffffffffffffffffffffffffffff8203611e5157611e50611a4c565b5b60018201905091905056fea264697066735822122047c537ba9adb9ffb10d2003a2a61a64e46c826d657eccd3fac0921b01aa3eefb64736f6c63430008130033",
  "immutableReferences": {},
  "source": "// SPDX-License-Identifier: MIT\r\npragma solidity ^0.8.0;\r\n\r\ncontract Manager {\r\n    struct Bin {\r\n        uint256 id;\r\n        string location;\r\n        string state;\r\n        uint256 capacity;\r\n        uint256 currentWeight;\r\n    }\r\n    mapping(uint256 => Bin) public bins;\r\n    uint256 public binsCount;\r\n\r\n    address[] public shipperAddresses;\r\n    address[] public citizenAddresses;\r\n    address public owner;\r\n\r\n    modifier onlyOwner() {\r\n        require(msg.sender == owner, \"Only owner can call this function\");\r\n        _;\r\n    }\r\n\r\n    constructor() {\r\n        owner = msg.sender;\r\n    }\r\n\r\n    function createShipper(address _shipperAddress) external onlyOwner {\r\n        shipperAddresses.push(_shipperAddress);\r\n    }\r\n\r\n    function deleteShipper(address _shipperAddress) external onlyOwner {\r\n        for (uint256 i = 0; i < shipperAddresses.length; i++) {\r\n            if (shipperAddresses[i] == _shipperAddress) {\r\n                shipperAddresses[i] = shipperAddresses[\r\n                    shipperAddresses.length - 1\r\n                ];\r\n                shipperAddresses.pop();\r\n                break;\r\n            }\r\n        }\r\n    }\r\n\r\n    function createCitizen(address _citizenAddress) external onlyOwner {\r\n        citizenAddresses.push(_citizenAddress);\r\n    }\r\n\r\n    function deleteCitizen(address _citizenAddress) external onlyOwner {\r\n        for (uint256 i = 0; i < citizenAddresses.length; i++) {\r\n            if (citizenAddresses[i] == _citizenAddress) {\r\n                citizenAddresses[i] = citizenAddresses[\r\n                    citizenAddresses.length - 1\r\n                ];\r\n                citizenAddresses.pop();\r\n                break;\r\n            }\r\n        }\r\n    }\r\n\r\n    function createBin(uint256 _id,string memory _location,string memory _state,uint256 _capacity,uint256 _currentWeight) external onlyOwner {\r\n        bins[_id] = Bin(_id, _location, _state, _capacity, _currentWeight);\r\n        binsCount++;\r\n\r\n    }\r\n\r\n    function modifyBin(uint256 _id, string memory _location, string memory _state, uint256 _capacity, uint256 _currentWeight) external onlyOwner {\r\n        bins[_id] = Bin(_id, _location, _state, _capacity, _currentWeight);\r\n    }\r\n\r\n    function deleteBin(uint256 _id) external onlyOwner {\r\n        delete bins[_id];\r\n        binsCount--;\r\n\r\n    }\r\n\r\n    \r\n    \r\n    function getShipperAddresses() external view onlyOwner returns (address[] memory)\r\n    {\r\n        return shipperAddresses;\r\n    }\r\n\r\n    function getCitizenAddresses() external view onlyOwner returns (address[] memory)\r\n    {\r\n        return citizenAddresses;\r\n    }\r\n\r\n\r\n    function getCitizenByAddress(address _citizenAddress) external view returns (address) {\r\n        for (uint256 i = 0; i < citizenAddresses.length; i++) {\r\n            if (citizenAddresses[i] == _citizenAddress) {\r\n                return (_citizenAddress);\r\n            }\r\n        }\r\n        return (address(0));\r\n    }\r\n\r\n    function getShipperByAddress(address _shipperAddress) external view returns (address) {\r\n        for (uint256 i = 0; i < shipperAddresses.length; i++) {\r\n            if (shipperAddresses[i] == _shipperAddress) {\r\n                return (_shipperAddress);\r\n            }\r\n        }\r\n        return (address(0));\r\n    }\r\n\r\n    function getBinById(uint256 _id) external view returns (uint256, string memory, string memory, uint256, uint256) {\r\n        Bin memory bin = bins[_id];\r\n        if (bin.id == 0) {\r\n            return (0, \"\", \"\", 0, 0);\r\n        } else {\r\n            return (bin.id, bin.location, bin.state, bin.capacity, bin.currentWeight);\r\n        }\r\n    }\r\n    \r\n   //get all bins lezm nzidouha \r\n   \r\n \r\n\r\n\r\n}\r\n",
  "sourcePath": "C:\\Users\\MSI\\Desktop\\TestTruffle\\contracts\\Manager.sol",
  "compiler": {
    "name": "solc",
    "version": "0.8.19+commit.7dd6d404.Emscripten.clang"
  },
  "schemaVersion": "3.4.16",
  "updatedAt": "2024-02-09T18:40:15.731Z",
  "networkType": "ethereum",
  "devdoc": {
    "kind": "dev",
    "methods": {},
    "version": 1
  },
  "userdoc": {
    "kind": "user",
    "methods": {},
    "version": 1
  }
}