{
  "contractName": "WasteManagement",
  "abi": [
    {
      "inputs": [],
      "stateMutability": "nonpayable",
      "type": "constructor"
    },
    {
      "inputs": [
        {
          "internalType": "uint256",
          "name": "",
          "type": "uint256"
        }
      ],
      "name": "bins",
      "outputs": [
        {
          "internalType": "uint256",
          "name": "id",
          "type": "uint256"
        },
        {
          "internalType": "string",
          "name": "location",
          "type": "string"
        },
        {
          "internalType": "string",
          "name": "state",
          "type": "string"
        },
        {
          "internalType": "uint256",
          "name": "capacity",
          "type": "uint256"
        },
        {
          "internalType": "uint256",
          "name": "currentWeight",
          "type": "uint256"
        }
      ],
      "stateMutability": "view",
      "type": "function",
      "constant": true
    },
    {
      "inputs": [],
      "name": "binsCount",
      "outputs": [
        {
          "internalType": "uint256",
          "name": "",
          "type": "uint256"
        }
      ],
      "stateMutability": "view",
      "type": "function",
      "constant": true
    },
    {
      "inputs": [
        {
          "internalType": "uint256",
          "name": "",
          "type": "uint256"
        }
      ],
      "name": "citizenAddresses",
      "outputs": [
        {
          "internalType": "address",
          "name": "",
          "type": "address"
        }
      ],
      "stateMutability": "view",
      "type": "function",
      "constant": true
    },
    {
      "inputs": [],
      "name": "owner",
      "outputs": [
        {
          "internalType": "address",
          "name": "",
          "type": "address"
        }
      ],
      "stateMutability": "view",
      "type": "function",
      "constant": true
    },
    {
      "inputs": [
        {
          "internalType": "uint256",
          "name": "",
          "type": "uint256"
        }
      ],
      "name": "shipperAddresses",
      "outputs": [
        {
          "internalType": "address",
          "name": "",
          "type": "address"
        }
      ],
      "stateMutability": "view",
      "type": "function",
      "constant": true
    },
    {
      "inputs": [
        {
          "internalType": "address",
          "name": "_shipperAddress",
          "type": "address"
        }
      ],
      "name": "createShipper",
      "outputs": [],
      "stateMutability": "nonpayable",
      "type": "function"
    },
    {
      "inputs": [
        {
          "internalType": "address",
          "name": "_shipperAddress",
          "type": "address"
        }
      ],
      "name": "deleteShipper",
      "outputs": [],
      "stateMutability": "nonpayable",
      "type": "function"
    },
    {
      "inputs": [
        {
          "internalType": "address",
          "name": "_citizenAddress",
          "type": "address"
        }
      ],
      "name": "createCitizen",
      "outputs": [],
      "stateMutability": "nonpayable",
      "type": "function"
    },
    {
      "inputs": [
        {
          "internalType": "address",
          "name": "_citizenAddress",
          "type": "address"
        }
      ],
      "name": "deleteCitizen",
      "outputs": [],
      "stateMutability": "nonpayable",
      "type": "function"
    },
    {
      "inputs": [
        {
          "internalType": "uint256",
          "name": "_id",
          "type": "uint256"
        },
        {
          "internalType": "string",
          "name": "_location",
          "type": "string"
        },
        {
          "internalType": "string",
          "name": "_state",
          "type": "string"
        },
        {
          "internalType": "uint256",
          "name": "_capacity",
          "type": "uint256"
        },
        {
          "internalType": "uint256",
          "name": "_currentWeight",
          "type": "uint256"
        }
      ],
      "name": "createBin",
      "outputs": [],
      "stateMutability": "nonpayable",
      "type": "function"
    },
    {
      "inputs": [
        {
          "internalType": "uint256",
          "name": "_id",
          "type": "uint256"
        },
        {
          "internalType": "string",
          "name": "_location",
          "type": "string"
        },
        {
          "internalType": "string",
          "name": "_state",
          "type": "string"
        },
        {
          "internalType": "uint256",
          "name": "_capacity",
          "type": "uint256"
        },
        {
          "internalType": "uint256",
          "name": "_currentWeight",
          "type": "uint256"
        }
      ],
      "name": "modifyBin",
      "outputs": [],
      "stateMutability": "nonpayable",
      "type": "function"
    },
    {
      "inputs": [
        {
          "internalType": "uint256",
          "name": "_id",
          "type": "uint256"
        }
      ],
      "name": "deleteBin",
      "outputs": [],
      "stateMutability": "nonpayable",
      "type": "function"
    },
    {
      "inputs": [],
      "name": "getShipperAddresses",
      "outputs": [
        {
          "internalType": "address[]",
          "name": "",
          "type": "address[]"
        }
      ],
      "stateMutability": "view",
      "type": "function",
      "constant": true
    },
    {
      "inputs": [],
      "name": "getCitizenAddresses",
      "outputs": [
        {
          "internalType": "address[]",
          "name": "",
          "type": "address[]"
        }
      ],
      "stateMutability": "view",
      "type": "function",
      "constant": true
    },
    {
      "inputs": [
        {
          "internalType": "address",
          "name": "_citizenAddress",
          "type": "address"
        }
      ],
      "name": "verifyCitizenByAddress",
      "outputs": [
        {
          "internalType": "bool",
          "name": "",
          "type": "bool"
        }
      ],
      "stateMutability": "view",
      "type": "function",
      "constant": true
    },
    {
      "inputs": [
        {
          "internalType": "address",
          "name": "_shipperAddress",
          "type": "address"
        }
      ],
      "name": "verifyShipperByAddress",
      "outputs": [
        {
          "internalType": "bool",
          "name": "",
          "type": "bool"
        }
      ],
      "stateMutability": "view",
      "type": "function",
      "constant": true
    },
    {
      "inputs": [
        {
          "internalType": "uint256",
          "name": "_id",
          "type": "uint256"
        }
      ],
      "name": "getBinById",
      "outputs": [
        {
          "internalType": "uint256",
          "name": "",
          "type": "uint256"
        },
        {
          "internalType": "string",
          "name": "",
          "type": "string"
        },
        {
          "internalType": "string",
          "name": "",
          "type": "string"
        },
        {
          "internalType": "uint256",
          "name": "",
          "type": "uint256"
        },
        {
          "internalType": "uint256",
          "name": "",
          "type": "uint256"
        }
      ],
      "stateMutability": "view",
      "type": "function",
      "constant": true
    }
  ],
  "bytecode": "0x608060405234801561001057600080fd5b5033600460006101000a81548173ffffffffffffffffffffffffffffffffffffffff021916908373ffffffffffffffffffffffffffffffffffffffff160217905550611f8e806100616000396000f3fe608060405234801561001057600080fd5b506004361061010b5760003560e01c8063885c7b38116100a2578063963464f111610071578063963464f1146102d2578063cc1b0a71146102ee578063df1298911461031e578063e63dad361461033a578063fb0c34ef146103565761010b565b8063885c7b38146102305780638d68d807146102645780638da5cb5b146102805780639568c0721461029e5761010b565b80633e5e3888116100de5780633e5e3888146101aa578063763440e4146101c8578063798277b9146101e45780637af33f2e146102005761010b565b8063068ff4fc14610110578063094cceb7146101405780632711a41c146101705780633c1bc3b91461018e575b600080fd5b61012a6004803603810190610125919061154f565b610374565b60405161013791906115bd565b60405180910390f35b61015a60048036038101906101559190611604565b6103b3565b604051610167919061164c565b60405180910390f35b610178610461565b6040516101859190611725565b60405180910390f35b6101a860048036038101906101a39190611604565b61057f565b005b6101b2610675565b6040516101bf9190611725565b60405180910390f35b6101e260048036038101906101dd919061154f565b610793565b005b6101fe60048036038101906101f9919061188d565b6108e3565b005b61021a6004803603810190610215919061154f565b610a00565b60405161022791906115bd565b60405180910390f35b61024a6004803603810190610245919061154f565b610a3f565b60405161025b9594939291906119ce565b60405180910390f35b61027e60048036038101906102799190611604565b610b85565b005b610288610da5565b60405161029591906115bd565b60405180910390f35b6102b860048036038101906102b3919061154f565b610dcb565b6040516102c99594939291906119ce565b60405180910390f35b6102ec60048036038101906102e79190611604565b610fa9565b005b61030860048036038101906103039190611604565b61109f565b604051610315919061164c565b60405180910390f35b61033860048036038101906103339190611604565b61114d565b005b610354600480360381019061034f919061188d565b61136d565b005b61035e6114a2565b60405161036b9190611a2f565b60405180910390f35b6002818154811061038457600080fd5b906000526020600020016000915054906101000a900473ffffffffffffffffffffffffffffffffffffffff1681565b600080600090505b600380549050811015610456578273ffffffffffffffffffffffffffffffffffffffff16600382815481106103f3576103f2611a4a565b5b9060005260206000200160009054906101000a900473ffffffffffffffffffffffffffffffffffffffff1673ffffffffffffffffffffffffffffffffffffffff160361044357600191505061045c565b808061044e90611aa8565b9150506103bb565b50600090505b919050565b6060600460009054906101000a900473ffffffffffffffffffffffffffffffffffffffff1673ffffffffffffffffffffffffffffffffffffffff163373ffffffffffffffffffffffffffffffffffffffff16146104f3576040517f08c379a00000000000000000000000000000000000000000000000000000000081526004016104ea90611b62565b60405180910390fd5b600280548060200260200160405190810160405280929190818152602001828054801561057557602002820191906000526020600020905b8160009054906101000a900473ffffffffffffffffffffffffffffffffffffffff1673ffffffffffffffffffffffffffffffffffffffff168152602001906001019080831161052b575b5050505050905090565b600460009054906101000a900473ffffffffffffffffffffffffffffffffffffffff1673ffffffffffffffffffffffffffffffffffffffff163373ffffffffffffffffffffffffffffffffffffffff161461060f576040517f08c379a000000000000000000000000000000000000000000000000000000000815260040161060690611b62565b60405180910390fd5b6003819080600181540180825580915050600190039060005260206000200160009091909190916101000a81548173ffffffffffffffffffffffffffffffffffffffff021916908373ffffffffffffffffffffffffffffffffffffffff16021790555050565b6060600460009054906101000a900473ffffffffffffffffffffffffffffffffffffffff1673ffffffffffffffffffffffffffffffffffffffff163373ffffffffffffffffffffffffffffffffffffffff1614610707576040517f08c379a00000000000000000000000000000000000000000000000000000000081526004016106fe90611b62565b60405180910390fd5b600380548060200260200160405190810160405280929190818152602001828054801561078957602002820191906000526020600020905b8160009054906101000a900473ffffffffffffffffffffffffffffffffffffffff1673ffffffffffffffffffffffffffffffffffffffff168152602001906001019080831161073f575b5050505050905090565b600460009054906101000a900473ffffffffffffffffffffffffffffffffffffffff1673ffffffffffffffffffffffffffffffffffffffff163373ffffffffffffffffffffffffffffffffffffffff1614610823576040517f08c379a000000000000000000000000000000000000000000000000000000000815260040161081a90611b62565b60405180910390fd5b6000806000838152602001908152602001600020600001540361087b576040517f08c379a000000000000000000000000000000000000000000000000000000000815260040161087290611bce565b60405180910390fd5b6000808281526020019081526020016000206000808201600090556001820160006108a691906114a8565b6002820160006108b691906114a8565b600382016000905560048201600090555050600160008154809291906108db90611bee565b919050555050565b600460009054906101000a900473ffffffffffffffffffffffffffffffffffffffff1673ffffffffffffffffffffffffffffffffffffffff163373ffffffffffffffffffffffffffffffffffffffff1614610973576040517f08c379a000000000000000000000000000000000000000000000000000000000815260040161096a90611b62565b60405180910390fd5b6040518060a00160405280868152602001858152602001848152602001838152602001828152506000808781526020019081526020016000206000820151816000015560208201518160010190816109cb9190611e23565b5060408201518160020190816109e19190611e23565b5060608201518160030155608082015181600401559050505050505050565b60038181548110610a1057600080fd5b906000526020600020016000915054906101000a900473ffffffffffffffffffffffffffffffffffffffff1681565b6000602052806000526040600020600091509050806000015490806001018054610a6890611c46565b80601f0160208091040260200160405190810160405280929190818152602001828054610a9490611c46565b8015610ae15780601f10610ab657610100808354040283529160200191610ae1565b820191906000526020600020905b815481529060010190602001808311610ac457829003601f168201915b505050505090806002018054610af690611c46565b80601f0160208091040260200160405190810160405280929190818152602001828054610b2290611c46565b8015610b6f5780601f10610b4457610100808354040283529160200191610b6f565b820191906000526020600020905b815481529060010190602001808311610b5257829003601f168201915b5050505050908060030154908060040154905085565b600460009054906101000a900473ffffffffffffffffffffffffffffffffffffffff1673ffffffffffffffffffffffffffffffffffffffff163373ffffffffffffffffffffffffffffffffffffffff1614610c15576040517f08c379a0000000000000000000000000000000000000000000000000000000008152600401610c0c90611b62565b60405180910390fd5b60005b600380549050811015610da1578173ffffffffffffffffffffffffffffffffffffffff1660038281548110610c5057610c4f611a4a565b5b9060005260206000200160009054906101000a900473ffffffffffffffffffffffffffffffffffffffff1673ffffffffffffffffffffffffffffffffffffffff1603610d8e5760036001600380549050610caa9190611ef5565b81548110610cbb57610cba611a4a565b5b9060005260206000200160009054906101000a900473ffffffffffffffffffffffffffffffffffffffff1660038281548110610cfa57610cf9611a4a565b5b9060005260206000200160006101000a81548173ffffffffffffffffffffffffffffffffffffffff021916908373ffffffffffffffffffffffffffffffffffffffff1602179055506003805480610d5457610d53611f29565b5b6001900381819060005260206000200160006101000a81549073ffffffffffffffffffffffffffffffffffffffff02191690559055610da1565b8080610d9990611aa8565b915050610c18565b5050565b600460009054906101000a900473ffffffffffffffffffffffffffffffffffffffff1681565b600060608060008060008060008881526020019081526020016000206040518060a001604052908160008201548152602001600182018054610e0c90611c46565b80601f0160208091040260200160405190810160405280929190818152602001828054610e3890611c46565b8015610e855780601f10610e5a57610100808354040283529160200191610e85565b820191906000526020600020905b815481529060010190602001808311610e6857829003601f168201915b50505050508152602001600282018054610e9e90611c46565b80601f0160208091040260200160405190810160405280929190818152602001828054610eca90611c46565b8015610f175780601f10610eec57610100808354040283529160200191610f17565b820191906000526020600020905b815481529060010190602001808311610efa57829003601f168201915b505050505081526020016003820154815260200160048201548152505090506000816000015103610f7b5760008060006040518060200160405280600081525091906040518060200160405280600081525091909550955095509550955050610fa0565b8060000151816020015182604001518360600151846080015195509550955095509550505b91939590929450565b600460009054906101000a900473ffffffffffffffffffffffffffffffffffffffff1673ffffffffffffffffffffffffffffffffffffffff163373ffffffffffffffffffffffffffffffffffffffff1614611039576040517f08c379a000000000000000000000000000000000000000000000000000000000815260040161103090611b62565b60405180910390fd5b6002819080600181540180825580915050600190039060005260206000200160009091909190916101000a81548173ffffffffffffffffffffffffffffffffffffffff021916908373ffffffffffffffffffffffffffffffffffffffff16021790555050565b600080600090505b600280549050811015611142578273ffffffffffffffffffffffffffffffffffffffff16600282815481106110df576110de611a4a565b5b9060005260206000200160009054906101000a900473ffffffffffffffffffffffffffffffffffffffff1673ffffffffffffffffffffffffffffffffffffffff160361112f576001915050611148565b808061113a90611aa8565b9150506110a7565b50600090505b919050565b600460009054906101000a900473ffffffffffffffffffffffffffffffffffffffff1673ffffffffffffffffffffffffffffffffffffffff163373ffffffffffffffffffffffffffffffffffffffff16146111dd576040517f08c379a00000000000000000000000000000000000000000000000000000000081526004016111d490611b62565b60405180910390fd5b60005b600280549050811015611369578173ffffffffffffffffffffffffffffffffffffffff166002828154811061121857611217611a4a565b5b9060005260206000200160009054906101000a900473ffffffffffffffffffffffffffffffffffffffff1673ffffffffffffffffffffffffffffffffffffffff160361135657600260016002805490506112729190611ef5565b8154811061128357611282611a4a565b5b9060005260206000200160009054906101000a900473ffffffffffffffffffffffffffffffffffffffff16600282815481106112c2576112c1611a4a565b5b9060005260206000200160006101000a81548173ffffffffffffffffffffffffffffffffffffffff021916908373ffffffffffffffffffffffffffffffffffffffff160217905550600280548061131c5761131b611f29565b5b6001900381819060005260206000200160006101000a81549073ffffffffffffffffffffffffffffffffffffffff02191690559055611369565b808061136190611aa8565b9150506111e0565b5050565b600460009054906101000a900473ffffffffffffffffffffffffffffffffffffffff1673ffffffffffffffffffffffffffffffffffffffff163373ffffffffffffffffffffffffffffffffffffffff16146113fd576040517f08c379a00000000000000000000000000000000000000000000000000000000081526004016113f490611b62565b60405180910390fd5b6040518060a00160405280868152602001858152602001848152602001838152602001828152506000808781526020019081526020016000206000820151816000015560208201518160010190816114559190611e23565b50604082015181600201908161146b9190611e23565b5060608201518160030155608082015181600401559050506001600081548092919061149690611aa8565b91905055505050505050565b60015481565b5080546114b490611c46565b6000825580601f106114c657506114e5565b601f0160209004906000526020600020908101906114e491906114e8565b5b50565b5b808211156115015760008160009055506001016114e9565b5090565b6000604051905090565b600080fd5b600080fd5b6000819050919050565b61152c81611519565b811461153757600080fd5b50565b60008135905061154981611523565b92915050565b6000602082840312156115655761156461150f565b5b60006115738482850161153a565b91505092915050565b600073ffffffffffffffffffffffffffffffffffffffff82169050919050565b60006115a78261157c565b9050919050565b6115b78161159c565b82525050565b60006020820190506115d260008301846115ae565b92915050565b6115e18161159c565b81146115ec57600080fd5b50565b6000813590506115fe816115d8565b92915050565b60006020828403121561161a5761161961150f565b5b6000611628848285016115ef565b91505092915050565b60008115159050919050565b61164681611631565b82525050565b6000602082019050611661600083018461163d565b92915050565b600081519050919050565b600082825260208201905092915050565b6000819050602082019050919050565b61169c8161159c565b82525050565b60006116ae8383611693565b60208301905092915050565b6000602082019050919050565b60006116d282611667565b6116dc8185611672565b93506116e783611683565b8060005b838110156117185781516116ff88826116a2565b975061170a836116ba565b9250506001810190506116eb565b5085935050505092915050565b6000602082019050818103600083015261173f81846116c7565b905092915050565b600080fd5b600080fd5b6000601f19601f8301169050919050565b7f4e487b7100000000000000000000000000000000000000000000000000000000600052604160045260246000fd5b61179a82611751565b810181811067ffffffffffffffff821117156117b9576117b8611762565b5b80604052505050565b60006117cc611505565b90506117d88282611791565b919050565b600067ffffffffffffffff8211156117f8576117f7611762565b5b61180182611751565b9050602081019050919050565b82818337600083830152505050565b600061183061182b846117dd565b6117c2565b90508281526020810184848401111561184c5761184b61174c565b5b61185784828561180e565b509392505050565b600082601f83011261187457611873611747565b5b813561188484826020860161181d565b91505092915050565b600080600080600060a086880312156118a9576118a861150f565b5b60006118b78882890161153a565b955050602086013567ffffffffffffffff8111156118d8576118d7611514565b5b6118e48882890161185f565b945050604086013567ffffffffffffffff81111561190557611904611514565b5b6119118882890161185f565b93505060606119228882890161153a565b92505060806119338882890161153a565b9150509295509295909350565b61194981611519565b82525050565b600081519050919050565b600082825260208201905092915050565b60005b8381101561198957808201518184015260208101905061196e565b60008484015250505050565b60006119a08261194f565b6119aa818561195a565b93506119ba81856020860161196b565b6119c381611751565b840191505092915050565b600060a0820190506119e36000830188611940565b81810360208301526119f58187611995565b90508181036040830152611a098186611995565b9050611a186060830185611940565b611a256080830184611940565b9695505050505050565b6000602082019050611a446000830184611940565b92915050565b7f4e487b7100000000000000000000000000000000000000000000000000000000600052603260045260246000fd5b7f4e487b7100000000000000000000000000000000000000000000000000000000600052601160045260246000fd5b6000611ab382611519565b91507fffffffffffffffffffffffffffffffffffffffffffffffffffffffffffffffff8203611ae557611ae4611a79565b5b600182019050919050565b7f4f6e6c79206f776e65722063616e2063616c6c20746869732066756e6374696f60008201527f6e00000000000000000000000000000000000000000000000000000000000000602082015250565b6000611b4c60218361195a565b9150611b5782611af0565b604082019050919050565b60006020820190508181036000830152611b7b81611b3f565b9050919050565b7f42696e20646f6573206e6f742065786973740000000000000000000000000000600082015250565b6000611bb860128361195a565b9150611bc382611b82565b602082019050919050565b60006020820190508181036000830152611be781611bab565b9050919050565b6000611bf982611519565b915060008203611c0c57611c0b611a79565b5b600182039050919050565b7f4e487b7100000000000000000000000000000000000000000000000000000000600052602260045260246000fd5b60006002820490506001821680611c5e57607f821691505b602082108103611c7157611c70611c17565b5b50919050565b60008190508160005260206000209050919050565b60006020601f8301049050919050565b600082821b905092915050565b600060088302611cd97fffffffffffffffffffffffffffffffffffffffffffffffffffffffffffffffff82611c9c565b611ce38683611c9c565b95508019841693508086168417925050509392505050565b6000819050919050565b6000611d20611d1b611d1684611519565b611cfb565b611519565b9050919050565b6000819050919050565b611d3a83611d05565b611d4e611d4682611d27565b848454611ca9565b825550505050565b600090565b611d63611d56565b611d6e818484611d31565b505050565b5b81811015611d9257611d87600082611d5b565b600181019050611d74565b5050565b601f821115611dd757611da881611c77565b611db184611c8c565b81016020851015611dc0578190505b611dd4611dcc85611c8c565b830182611d73565b50505b505050565b600082821c905092915050565b6000611dfa60001984600802611ddc565b1980831691505092915050565b6000611e138383611de9565b9150826002028217905092915050565b611e2c8261194f565b67ffffffffffffffff811115611e4557611e44611762565b5b611e4f8254611c46565b611e5a828285611d96565b600060209050601f831160018114611e8d5760008415611e7b578287015190505b611e858582611e07565b865550611eed565b601f198416611e9b86611c77565b60005b82811015611ec357848901518255600182019150602085019450602081019050611e9e565b86831015611ee05784890151611edc601f891682611de9565b8355505b6001600288020188555050505b505050505050565b6000611f0082611519565b9150611f0b83611519565b9250828203905081811115611f2357611f22611a79565b5b92915050565b7f4e487b7100000000000000000000000000000000000000000000000000000000600052603160045260246000fdfea264697066735822122056834788f79d0649f396185d66fbb2f4f9537512a9e3a6f3de8343c0b4d81ab564736f6c63430008130033",
  "immutableReferences": {},
  "source": "// SPDX-License-Identifier: MIT\r\npragma solidity ^0.8.0;\r\n\r\ncontract WasteManagement {\r\n    struct Bin {\r\n        uint256 id;\r\n        string location;\r\n        string state;\r\n        uint256 capacity;\r\n        uint256 currentWeight;\r\n    }\r\n    mapping(uint256 => Bin) public bins;\r\n    uint256 public binsCount;\r\n\r\n    address[] public shipperAddresses;\r\n    address[] public citizenAddresses;\r\n    address public owner;\r\n\r\n    modifier onlyOwner() {\r\n        require(msg.sender == owner, \"Only owner can call this function\");\r\n        _;\r\n    }\r\n\r\n    constructor() {\r\n        owner = msg.sender;\r\n    }\r\n\r\n    function createShipper(address _shipperAddress) external onlyOwner {\r\n        shipperAddresses.push(_shipperAddress);\r\n    }\r\n\r\n    function deleteShipper(address _shipperAddress) external onlyOwner {\r\n        for (uint256 i = 0; i < shipperAddresses.length; i++) {\r\n            if (shipperAddresses[i] == _shipperAddress) {\r\n                shipperAddresses[i] = shipperAddresses[\r\n                    shipperAddresses.length - 1\r\n                ];\r\n                shipperAddresses.pop();\r\n                break;\r\n            }\r\n        }\r\n    }\r\n\r\n    function createCitizen(address _citizenAddress) external onlyOwner {\r\n        citizenAddresses.push(_citizenAddress);\r\n    }\r\n\r\n    function deleteCitizen(address _citizenAddress) external onlyOwner {\r\n        for (uint256 i = 0; i < citizenAddresses.length; i++) {\r\n            if (citizenAddresses[i] == _citizenAddress) {\r\n                citizenAddresses[i] = citizenAddresses[\r\n                    citizenAddresses.length - 1\r\n                ];\r\n                citizenAddresses.pop();\r\n                break;\r\n            }\r\n        }\r\n    }\r\n\r\n    function createBin(uint256 _id,string memory _location,string memory _state,uint256 _capacity,uint256 _currentWeight) external onlyOwner {\r\n        bins[_id] = Bin(_id, _location, _state, _capacity, _currentWeight);\r\n        binsCount++;\r\n\r\n    }\r\n\r\n    function modifyBin(uint256 _id, string memory _location, string memory _state, uint256 _capacity, uint256 _currentWeight) external onlyOwner {\r\n        bins[_id] = Bin(_id, _location, _state, _capacity, _currentWeight);\r\n    }\r\n\r\n    function deleteBin(uint256 _id) external onlyOwner {\r\n    require(bins[_id].id != 0, \"Bin does not exist\");\r\n    delete bins[_id];\r\n    binsCount--;\r\n}\r\n\r\n\r\n    \r\n    \r\n    function getShipperAddresses() external view onlyOwner returns (address[] memory)\r\n    {\r\n        return shipperAddresses;\r\n    }\r\n\r\n    function getCitizenAddresses() external view onlyOwner returns (address[] memory)\r\n    {\r\n        return citizenAddresses;\r\n    }\r\n\r\n\r\n    function verifyCitizenByAddress(address _citizenAddress) external view returns (bool) {\r\n        for (uint256 i = 0; i < citizenAddresses.length; i++) {\r\n            if (citizenAddresses[i] == _citizenAddress) {\r\n                return (true);\r\n            }\r\n        }\r\n        return (false);\r\n    }\r\n\r\n    function verifyShipperByAddress(address _shipperAddress) external view returns (bool) {\r\n        for (uint256 i = 0; i < shipperAddresses.length; i++) {\r\n            if (shipperAddresses[i] == _shipperAddress) {\r\n                return (true);\r\n            }\r\n        }\r\n        return (false);\r\n    }\r\n\r\n    function getBinById(uint256 _id) external view returns (uint256, string memory, string memory, uint256, uint256) {\r\n        Bin memory bin = bins[_id];\r\n        if (bin.id == 0) {\r\n            return (0, \"\", \"\", 0, 0);\r\n        } else {\r\n            return (bin.id, bin.location, bin.state, bin.capacity, bin.currentWeight);\r\n        }\r\n    }\r\n    \r\n   //get all bins lezm nzidouha ama fiha machekel 5aterha fi map w display mte3ha maset\r\n \r\n \r\n\r\n\r\n}\r\n",
  "sourcePath": "C:\\Users\\MSI\\Desktop\\testPFAand Blockchain\\truffle\\contracts\\WasteManagement.sol",
  "compiler": {
    "name": "solc",
    "version": "0.8.19+commit.7dd6d404.Emscripten.clang"
  },
  "schemaVersion": "3.4.16",
  "updatedAt": "2024-02-12T21:25:08.087Z",
  "networkType": "ethereum",
  "devdoc": {
    "kind": "dev",
    "methods": {},
    "version": 1
  },
  "userdoc": {
    "kind": "user",
    "methods": {},
    "version": 1
  }
}